{
  "contractName": "CreateVote",
  "abi": [
    {
      "inputs": [],
      "stateMutability": "nonpayable",
      "type": "constructor"
    },
    {
      "anonymous": false,
      "inputs": [
        {
          "indexed": false,
          "internalType": "uint256",
          "name": "voteId",
          "type": "uint256"
        },
        {
          "indexed": false,
          "internalType": "uint256",
          "name": "candidateId",
          "type": "uint256"
        },
        {
          "indexed": false,
          "internalType": "string",
          "name": "name",
          "type": "string"
        }
      ],
      "name": "CandidateAdded",
      "type": "event"
    },
    {
      "anonymous": false,
      "inputs": [
        {
          "indexed": false,
          "internalType": "uint256",
          "name": "voteId",
          "type": "uint256"
        },
        {
          "indexed": false,
          "internalType": "string",
          "name": "title",
          "type": "string"
        }
      ],
      "name": "VoteCreated",
      "type": "event"
    },
    {
      "inputs": [],
      "name": "owner",
      "outputs": [
        {
          "internalType": "address",
          "name": "",
          "type": "address"
        }
      ],
      "stateMutability": "view",
      "type": "function"
    },
    {
      "inputs": [],
      "name": "voteCount",
      "outputs": [
        {
          "internalType": "uint256",
          "name": "",
          "type": "uint256"
        }
      ],
      "stateMutability": "view",
      "type": "function"
    },
    {
      "inputs": [
        {
          "internalType": "uint256",
          "name": "",
          "type": "uint256"
        }
      ],
      "name": "votes",
      "outputs": [
        {
          "internalType": "uint256",
          "name": "id",
          "type": "uint256"
        },
        {
          "internalType": "string",
          "name": "title",
          "type": "string"
        },
        {
          "internalType": "uint256",
          "name": "candidateCount",
          "type": "uint256"
        },
        {
          "internalType": "bool",
          "name": "isActive",
          "type": "bool"
        }
      ],
      "stateMutability": "view",
      "type": "function"
    },
    {
      "inputs": [
        {
          "internalType": "string",
          "name": "title",
          "type": "string"
        },
        {
          "internalType": "string[]",
          "name": "candidateNames",
          "type": "string[]"
        }
      ],
      "name": "createVote",
      "outputs": [],
      "stateMutability": "nonpayable",
      "type": "function"
    },
    {
      "inputs": [
        {
          "internalType": "uint256",
          "name": "voteId",
          "type": "uint256"
        }
      ],
      "name": "endVote",
      "outputs": [],
      "stateMutability": "nonpayable",
      "type": "function"
    },
    {
      "inputs": [
        {
          "internalType": "uint256",
          "name": "voteId",
          "type": "uint256"
        },
        {
          "internalType": "uint256",
          "name": "candidateId",
          "type": "uint256"
        }
      ],
      "name": "getCandidate",
      "outputs": [
        {
          "internalType": "string",
          "name": "",
          "type": "string"
        },
        {
          "internalType": "uint256",
          "name": "",
          "type": "uint256"
        }
      ],
      "stateMutability": "view",
      "type": "function"
    },
    {
      "inputs": [
        {
          "internalType": "uint256",
          "name": "voteId",
          "type": "uint256"
        },
        {
          "internalType": "uint256",
          "name": "candidateId",
          "type": "uint256"
        }
      ],
      "name": "incrementVoteCount",
      "outputs": [],
      "stateMutability": "nonpayable",
      "type": "function"
    }
  ],
  "bytecode": "0x608060405234801561000f575f80fd5b503360025f6101000a81548173ffffffffffffffffffffffffffffffffffffffff021916908373ffffffffffffffffffffffffffffffffffffffff1602179055506113308061005d5f395ff3fe608060405234801561000f575f80fd5b506004361061007b575f3560e01c8063865df0ad11610059578063865df0ad146100ff5780638da5cb5b1461011b57806390a3a11f14610139578063c6384071146101555761007b565b8063355b33b01461007f5780634bd464481461009b5780635df81330146100cc575b5f80fd5b610099600480360381019061009491906108d7565b610173565b005b6100b560048036038101906100b091906108d7565b6102c1565b6040516100c39291906109ae565b60405180910390f35b6100e660048036038101906100e191906109dc565b61045e565b6040516100f69493929190610a21565b60405180910390f35b610119600480360381019061011491906109dc565b61051b565b005b610123610627565b6040516101309190610aaa565b60405180910390f35b610153600480360381019061014e9190610cd1565b61064c565b005b61015d61088d565b60405161016a9190610d47565b60405180910390f35b5f8211801561018457506001548211155b6101c3576040517f08c379a00000000000000000000000000000000000000000000000000000000081526004016101ba90610daa565b60405180910390fd5b5f811180156101e557505f808381526020019081526020015f20600301548111155b610224576040517f08c379a000000000000000000000000000000000000000000000000000000000815260040161021b90610e12565b60405180910390fd5b5f808381526020019081526020015f206004015f9054906101000a900460ff16610283576040517f08c379a000000000000000000000000000000000000000000000000000000000815260040161027a90610e7a565b60405180910390fd5b5f808381526020019081526020015f206002015f8281526020019081526020015f206002015f8154809291906102b890610ec5565b91905055505050565b60605f80841180156102d557506001548411155b610314576040517f08c379a000000000000000000000000000000000000000000000000000000000815260040161030b90610daa565b60405180910390fd5b5f8311801561033657505f808581526020019081526020015f20600301548311155b610375576040517f08c379a000000000000000000000000000000000000000000000000000000000815260040161036c90610e12565b60405180910390fd5b5f805f8681526020019081526020015f206002015f8581526020019081526020015f206040518060600160405290815f82015481526020016001820180546103bc90610f39565b80601f01602080910402602001604051908101604052809291908181526020018280546103e890610f39565b80156104335780601f1061040a57610100808354040283529160200191610433565b820191905f5260205f20905b81548152906001019060200180831161041657829003601f168201915b5050505050815260200160028201548152505090508060200151816040015192509250509250929050565b5f602052805f5260405f205f91509050805f01549080600101805461048290610f39565b80601f01602080910402602001604051908101604052809291908181526020018280546104ae90610f39565b80156104f95780601f106104d0576101008083540402835291602001916104f9565b820191905f5260205f20905b8154815290600101906020018083116104dc57829003601f168201915b505050505090806003015490806004015f9054906101000a900460ff16905084565b60025f9054906101000a900473ffffffffffffffffffffffffffffffffffffffff1673ffffffffffffffffffffffffffffffffffffffff163373ffffffffffffffffffffffffffffffffffffffff16146105aa576040517f08c379a00000000000000000000000000000000000000000000000000000000081526004016105a190610fd9565b60405180910390fd5b5f811180156105bb57506001548111155b6105fa576040517f08c379a00000000000000000000000000000000000000000000000000000000081526004016105f190610daa565b60405180910390fd5b5f805f8381526020019081526020015f206004015f6101000a81548160ff02191690831515021790555050565b60025f9054906101000a900473ffffffffffffffffffffffffffffffffffffffff1681565b60025f9054906101000a900473ffffffffffffffffffffffffffffffffffffffff1673ffffffffffffffffffffffffffffffffffffffff163373ffffffffffffffffffffffffffffffffffffffff16146106db576040517f08c379a00000000000000000000000000000000000000000000000000000000081526004016106d290610fd9565b60405180910390fd5b60015f8154809291906106ed90610ec5565b91905055505f805f60015481526020019081526020015f209050600154815f0181905550828160010190816107229190611194565b506001816004015f6101000a81548160ff0219169083151502179055505f5b825181101561084c57816003015f81548092919061075e90610ec5565b919050555060405180606001604052808360030154815260200184838151811061078b5761078a611263565b5b602002602001015181526020015f815250826002015f846003015481526020019081526020015f205f820151815f015560208201518160010190816107d09190611194565b50604082015181600201559050507fed8911b3df733b7d5f75724158e54478ea12e30f49c9d31b5261879f5b76586f600154836003015485848151811061081a57610819611263565b5b602002602001015160405161083193929190611290565b60405180910390a1808061084490610ec5565b915050610741565b507f8225b3ad6e66d4c2342e977fbab464beaf3ae9d33b222938cff268dfd7b55b83600154846040516108809291906112cc565b60405180910390a1505050565b60015481565b5f604051905090565b5f80fd5b5f80fd5b5f819050919050565b6108b6816108a4565b81146108c0575f80fd5b50565b5f813590506108d1816108ad565b92915050565b5f80604083850312156108ed576108ec61089c565b5b5f6108fa858286016108c3565b925050602061090b858286016108c3565b9150509250929050565b5f81519050919050565b5f82825260208201905092915050565b5f5b8381101561094c578082015181840152602081019050610931565b5f8484015250505050565b5f601f19601f8301169050919050565b5f61097182610915565b61097b818561091f565b935061098b81856020860161092f565b61099481610957565b840191505092915050565b6109a8816108a4565b82525050565b5f6040820190508181035f8301526109c68185610967565b90506109d5602083018461099f565b9392505050565b5f602082840312156109f1576109f061089c565b5b5f6109fe848285016108c3565b91505092915050565b5f8115159050919050565b610a1b81610a07565b82525050565b5f608082019050610a345f83018761099f565b8181036020830152610a468186610967565b9050610a55604083018561099f565b610a626060830184610a12565b95945050505050565b5f73ffffffffffffffffffffffffffffffffffffffff82169050919050565b5f610a9482610a6b565b9050919050565b610aa481610a8a565b82525050565b5f602082019050610abd5f830184610a9b565b92915050565b5f80fd5b5f80fd5b7f4e487b71000000000000000000000000000000000000000000000000000000005f52604160045260245ffd5b610b0182610957565b810181811067ffffffffffffffff82111715610b2057610b1f610acb565b5b80604052505050565b5f610b32610893565b9050610b3e8282610af8565b919050565b5f67ffffffffffffffff821115610b5d57610b5c610acb565b5b610b6682610957565b9050602081019050919050565b828183375f83830152505050565b5f610b93610b8e84610b43565b610b29565b905082815260208101848484011115610baf57610bae610ac7565b5b610bba848285610b73565b509392505050565b5f82601f830112610bd657610bd5610ac3565b5b8135610be6848260208601610b81565b91505092915050565b5f67ffffffffffffffff821115610c0957610c08610acb565b5b602082029050602081019050919050565b5f80fd5b5f610c30610c2b84610bef565b610b29565b90508083825260208201905060208402830185811115610c5357610c52610c1a565b5b835b81811015610c9a57803567ffffffffffffffff811115610c7857610c77610ac3565b5b808601610c858982610bc2565b85526020850194505050602081019050610c55565b5050509392505050565b5f82601f830112610cb857610cb7610ac3565b5b8135610cc8848260208601610c1e565b91505092915050565b5f8060408385031215610ce757610ce661089c565b5b5f83013567ffffffffffffffff811115610d0457610d036108a0565b5b610d1085828601610bc2565b925050602083013567ffffffffffffffff811115610d3157610d306108a0565b5b610d3d85828601610ca4565b9150509250929050565b5f602082019050610d5a5f83018461099f565b92915050565b7f496e76616c696420766f746520494400000000000000000000000000000000005f82015250565b5f610d94600f8361091f565b9150610d9f82610d60565b602082019050919050565b5f6020820190508181035f830152610dc181610d88565b9050919050565b7f496e76616c69642063616e6469646174652049440000000000000000000000005f82015250565b5f610dfc60148361091f565b9150610e0782610dc8565b602082019050919050565b5f6020820190508181035f830152610e2981610df0565b9050919050565b7f566f74696e672068617320656e646564000000000000000000000000000000005f82015250565b5f610e6460108361091f565b9150610e6f82610e30565b602082019050919050565b5f6020820190508181035f830152610e9181610e58565b9050919050565b7f4e487b71000000000000000000000000000000000000000000000000000000005f52601160045260245ffd5b5f610ecf826108a4565b91507fffffffffffffffffffffffffffffffffffffffffffffffffffffffffffffffff8203610f0157610f00610e98565b5b600182019050919050565b7f4e487b71000000000000000000000000000000000000000000000000000000005f52602260045260245ffd5b5f6002820490506001821680610f5057607f821691505b602082108103610f6357610f62610f0c565b5b50919050565b7f4f6e6c79206f776e65722063616e2063616c6c20746869732066756e6374696f5f8201527f6e00000000000000000000000000000000000000000000000000000000000000602082015250565b5f610fc360218361091f565b9150610fce82610f69565b604082019050919050565b5f6020820190508181035f830152610ff081610fb7565b9050919050565b5f819050815f5260205f209050919050565b5f6020601f8301049050919050565b5f82821b905092915050565b5f600883026110537fffffffffffffffffffffffffffffffffffffffffffffffffffffffffffffffff82611018565b61105d8683611018565b95508019841693508086168417925050509392505050565b5f819050919050565b5f61109861109361108e846108a4565b611075565b6108a4565b9050919050565b5f819050919050565b6110b18361107e565b6110c56110bd8261109f565b848454611024565b825550505050565b5f90565b6110d96110cd565b6110e48184846110a8565b505050565b5b81811015611107576110fc5f826110d1565b6001810190506110ea565b5050565b601f82111561114c5761111d81610ff7565b61112684611009565b81016020851015611135578190505b61114961114185611009565b8301826110e9565b50505b505050565b5f82821c905092915050565b5f61116c5f1984600802611151565b1980831691505092915050565b5f611184838361115d565b9150826002028217905092915050565b61119d82610915565b67ffffffffffffffff8111156111b6576111b5610acb565b5b6111c08254610f39565b6111cb82828561110b565b5f60209050601f8311600181146111fc575f84156111ea578287015190505b6111f48582611179565b86555061125b565b601f19841661120a86610ff7565b5f5b828110156112315784890151825560018201915060208501945060208101905061120c565b8683101561124e578489015161124a601f89168261115d565b8355505b6001600288020188555050505b505050505050565b7f4e487b71000000000000000000000000000000000000000000000000000000005f52603260045260245ffd5b5f6060820190506112a35f83018661099f565b6112b0602083018561099f565b81810360408301526112c28184610967565b9050949350505050565b5f6040820190506112df5f83018561099f565b81810360208301526112f18184610967565b9050939250505056fea2646970667358221220a8af725f2c2a005f77794369aee3cd66f7fdb3dca44e2e67222a3f1ee02dae0f64736f6c63430008150033",
  "immutableReferences": {},
  "source": "// SPDX-License-Identifier: MIT\npragma solidity ^0.8.0;\n\ncontract CreateVote {\n    struct Candidate {\n        uint id;\n        string name;\n        uint voteCount;\n    }\n\n    struct Vote {\n        uint id;\n        string title;\n        mapping(uint => Candidate) candidates;\n        uint candidateCount;\n        bool isActive;\n    }\n\n    mapping(uint => Vote) public votes;\n    uint public voteCount;\n    address public owner;\n\n    event VoteCreated(uint voteId, string title);\n    event CandidateAdded(uint voteId, uint candidateId, string name);\n\n    modifier onlyOwner() {\n        require(msg.sender == owner, \"Only owner can call this function\");\n        _;\n    }\n\n    constructor() {\n        owner = msg.sender;\n    }\n\n    function createVote(string memory title, string[] memory candidateNames) public onlyOwner {\n        voteCount++;\n        Vote storage newVote = votes[voteCount];\n        newVote.id = voteCount;\n        newVote.title = title;\n        newVote.isActive = true;\n\n        for (uint i = 0; i < candidateNames.length; i++) {\n            newVote.candidateCount++;\n            newVote.candidates[newVote.candidateCount] = Candidate(newVote.candidateCount, candidateNames[i], 0);\n            emit CandidateAdded(voteCount, newVote.candidateCount, candidateNames[i]);\n        }\n\n        emit VoteCreated(voteCount, title);\n    }\n\n    function endVote(uint voteId) public onlyOwner {\n        require(voteId > 0 && voteId <= voteCount, \"Invalid vote ID\");\n        votes[voteId].isActive = false;\n    }\n\n    function getCandidate(uint voteId, uint candidateId) public view returns (string memory, uint) {\n        require(voteId > 0 && voteId <= voteCount, \"Invalid vote ID\");\n        require(candidateId > 0 && candidateId <= votes[voteId].candidateCount, \"Invalid candidate ID\");\n\n        Candidate memory candidate = votes[voteId].candidates[candidateId];\n        return (candidate.name, candidate.voteCount);\n    }\n\n    function incrementVoteCount(uint voteId, uint candidateId) public {\n        require(voteId > 0 && voteId <= voteCount, \"Invalid vote ID\");\n        require(candidateId > 0 && candidateId <= votes[voteId].candidateCount, \"Invalid candidate ID\");\n        require(votes[voteId].isActive, \"Voting has ended\");\n\n        votes[voteId].candidates[candidateId].voteCount++;\n    }\n}\n",
  "sourcePath": "/home/arkapravadhar/Desktop/VoteChain/contracts/1_CreateVote.sol",
  "compiler": {
    "name": "solc",
    "version": "0.8.21+commit.d9974bed.Emscripten.clang"
  },
  "schemaVersion": "3.4.16",
  "updatedAt": "2025-02-14T18:12:10.944Z",
  "devdoc": {
    "kind": "dev",
    "methods": {},
    "version": 1
  },
  "userdoc": {
    "kind": "user",
    "methods": {},
    "version": 1
  }
}