{
  "contractName": "CastVote",
  "abi": [
    {
      "inputs": [
        {
          "internalType": "address",
          "name": "_createVoteContract",
          "type": "address"
        }
      ],
      "stateMutability": "nonpayable",
      "type": "constructor"
    },
    {
      "anonymous": false,
      "inputs": [
        {
          "indexed": true,
          "internalType": "address",
          "name": "voter",
          "type": "address"
        },
        {
          "indexed": false,
          "internalType": "uint256",
          "name": "voteId",
          "type": "uint256"
        },
        {
          "indexed": false,
          "internalType": "uint256",
          "name": "candidateId",
          "type": "uint256"
        }
      ],
      "name": "Voted",
      "type": "event"
    },
    {
      "inputs": [],
      "name": "createVoteContract",
      "outputs": [
        {
          "internalType": "address",
          "name": "",
          "type": "address"
        }
      ],
      "stateMutability": "view",
      "type": "function",
      "constant": true
    },
    {
      "inputs": [
        {
          "internalType": "address",
          "name": "",
          "type": "address"
        },
        {
          "internalType": "uint256",
          "name": "",
          "type": "uint256"
        }
      ],
      "name": "hasVoted",
      "outputs": [
        {
          "internalType": "bool",
          "name": "",
          "type": "bool"
        }
      ],
      "stateMutability": "view",
      "type": "function",
      "constant": true
    },
    {
      "inputs": [],
      "name": "owner",
      "outputs": [
        {
          "internalType": "address",
          "name": "",
          "type": "address"
        }
      ],
      "stateMutability": "view",
      "type": "function",
      "constant": true
    },
    {
      "inputs": [
        {
          "internalType": "uint256",
          "name": "voteId",
          "type": "uint256"
        },
        {
          "internalType": "uint256",
          "name": "candidateId",
          "type": "uint256"
        }
      ],
      "name": "vote",
      "outputs": [],
      "stateMutability": "nonpayable",
      "type": "function"
    }
  ],
  "bytecode": "0x608060405234801561001057600080fd5b506040516108bc3803806108bc8339818101604052810190610032919061011c565b336000806101000a81548173ffffffffffffffffffffffffffffffffffffffff021916908373ffffffffffffffffffffffffffffffffffffffff16021790555080600160006101000a81548173ffffffffffffffffffffffffffffffffffffffff021916908373ffffffffffffffffffffffffffffffffffffffff16021790555050610149565b600080fd5b600073ffffffffffffffffffffffffffffffffffffffff82169050919050565b60006100e9826100be565b9050919050565b6100f9816100de565b811461010457600080fd5b50565b600081519050610116816100f0565b92915050565b600060208284031215610132576101316100b9565b5b600061014084828501610107565b91505092915050565b610764806101586000396000f3fe608060405234801561001057600080fd5b506004361061004c5760003560e01c80632ef76b0014610051578063425458251461006f5780638da5cb5b1461009f578063b384abef146100bd575b600080fd5b6100596100d9565b604051610066919061044d565b60405180910390f35b610089600480360381019061008491906104cf565b6100ff565b604051610096919061052a565b60405180910390f35b6100a761012e565b6040516100b4919061044d565b60405180910390f35b6100d760048036038101906100d29190610545565b610152565b005b600160009054906101000a900473ffffffffffffffffffffffffffffffffffffffff1681565b60026020528160005260406000206020528060005260406000206000915091509054906101000a900460ff1681565b60008054906101000a900473ffffffffffffffffffffffffffffffffffffffff1681565b600260003373ffffffffffffffffffffffffffffffffffffffff1673ffffffffffffffffffffffffffffffffffffffff168152602001908152602001600020600083815260200190815260200160002060009054906101000a900460ff16156101f0576040517f08c379a00000000000000000000000000000000000000000000000000000000081526004016101e7906105e2565b60405180910390fd5b6000600160009054906101000a900473ffffffffffffffffffffffffffffffffffffffff1673ffffffffffffffffffffffffffffffffffffffff16838360405160240161023e929190610611565b6040516020818303038152906040527f355b33b0000000000000000000000000000000000000000000000000000000007bffffffffffffffffffffffffffffffffffffffffffffffffffffffff19166020820180517bffffffffffffffffffffffffffffffffffffffffffffffffffffffff83818316178352505050506040516102c891906106ab565b6000604051808303816000865af19150503d8060008114610305576040519150601f19603f3d011682016040523d82523d6000602084013e61030a565b606091505b505090508061034e576040517f08c379a00000000000000000000000000000000000000000000000000000000081526004016103459061070e565b60405180910390fd5b6001600260003373ffffffffffffffffffffffffffffffffffffffff1673ffffffffffffffffffffffffffffffffffffffff168152602001908152602001600020600085815260200190815260200160002060006101000a81548160ff0219169083151502179055503373ffffffffffffffffffffffffffffffffffffffff167fea66f58e474bc09f580000e81f31b334d171db387d0c6098ba47bd897741679b84846040516103ff929190610611565b60405180910390a2505050565b600073ffffffffffffffffffffffffffffffffffffffff82169050919050565b60006104378261040c565b9050919050565b6104478161042c565b82525050565b6000602082019050610462600083018461043e565b92915050565b600080fd5b6104768161042c565b811461048157600080fd5b50565b6000813590506104938161046d565b92915050565b6000819050919050565b6104ac81610499565b81146104b757600080fd5b50565b6000813590506104c9816104a3565b92915050565b600080604083850312156104e6576104e5610468565b5b60006104f485828601610484565b9250506020610505858286016104ba565b9150509250929050565b60008115159050919050565b6105248161050f565b82525050565b600060208201905061053f600083018461051b565b92915050565b6000806040838503121561055c5761055b610468565b5b600061056a858286016104ba565b925050602061057b858286016104ba565b9150509250929050565b600082825260208201905092915050565b7f596f75206861766520616c726561647920766f74656400000000000000000000600082015250565b60006105cc601683610585565b91506105d782610596565b602082019050919050565b600060208201905081810360008301526105fb816105bf565b9050919050565b61060b81610499565b82525050565b60006040820190506106266000830185610602565b6106336020830184610602565b9392505050565b600081519050919050565b600081905092915050565b60005b8381101561066e578082015181840152602081019050610653565b60008484015250505050565b60006106858261063a565b61068f8185610645565b935061069f818560208601610650565b80840191505092915050565b60006106b7828461067a565b915081905092915050565b7f566f746520636f756e7420757064617465206661696c65640000000000000000600082015250565b60006106f8601883610585565b9150610703826106c2565b602082019050919050565b60006020820190508181036000830152610727816106eb565b905091905056fea26469706673582212200d01d34af26aa3a6fa6be3e41de0671fb29b9acc1143e93ca8fccaf1cbdfe52a64736f6c63430008130033",
  "immutableReferences": {},
  "source": "// SPDX-License-Identifier: MIT\npragma solidity ^0.8.19;\n\ncontract CastVote {\n    address public owner;\n    address public createVoteContract;\n    mapping(address => mapping(uint => bool)) public hasVoted;\n\n    event Voted(address indexed voter, uint voteId, uint candidateId);\n\n    modifier onlyOwner() {\n        require(msg.sender == owner, \"Only owner can call this function\");\n        _;\n    }\n\n    constructor(address _createVoteContract) {\n        owner = msg.sender;\n        createVoteContract = _createVoteContract;\n    }\n\n    function vote(uint voteId, uint candidateId) public {\n        require(!hasVoted[msg.sender][voteId], \"You have already voted\");\n\n        // Call CreateVote contract to increment vote count\n        (bool success, ) = createVoteContract.call(\n            abi.encodeWithSignature(\"incrementVoteCount(uint256,uint256)\", voteId, candidateId)\n        );\n        require(success, \"Vote count update failed\");\n\n        hasVoted[msg.sender][voteId] = true;\n        emit Voted(msg.sender, voteId, candidateId);\n    }\n}\n",
  "sourcePath": "/home/arkapravadhar/Desktop/VoteChain/contracts/CastVote.sol",
  "compiler": {
    "name": "solc",
    "version": "0.8.19+commit.7dd6d404.Emscripten.clang"
  },
  "schemaVersion": "3.4.16",
  "updatedAt": "2025-02-19T12:50:13.683Z",
  "networkType": "ethereum",
  "devdoc": {
    "kind": "dev",
    "methods": {},
    "version": 1
  },
  "userdoc": {
    "kind": "user",
    "methods": {},
    "version": 1
  }
}