{
  "contractName": "CastVote",
  "abi": [
    {
      "inputs": [
        {
          "internalType": "address",
          "name": "_createVoteContract",
          "type": "address"
        }
      ],
      "stateMutability": "nonpayable",
      "type": "constructor"
    },
    {
      "anonymous": false,
      "inputs": [
        {
          "indexed": true,
          "internalType": "address",
          "name": "voter",
          "type": "address"
        },
        {
          "indexed": false,
          "internalType": "uint256",
          "name": "voteId",
          "type": "uint256"
        },
        {
          "indexed": false,
          "internalType": "uint256",
          "name": "candidateId",
          "type": "uint256"
        }
      ],
      "name": "Voted",
      "type": "event"
    },
    {
      "inputs": [],
      "name": "createVoteContract",
      "outputs": [
        {
          "internalType": "address",
          "name": "",
          "type": "address"
        }
      ],
      "stateMutability": "view",
      "type": "function"
    },
    {
      "inputs": [
        {
          "internalType": "address",
          "name": "",
          "type": "address"
        },
        {
          "internalType": "uint256",
          "name": "",
          "type": "uint256"
        }
      ],
      "name": "hasVoted",
      "outputs": [
        {
          "internalType": "bool",
          "name": "",
          "type": "bool"
        }
      ],
      "stateMutability": "view",
      "type": "function"
    },
    {
      "inputs": [],
      "name": "owner",
      "outputs": [
        {
          "internalType": "address",
          "name": "",
          "type": "address"
        }
      ],
      "stateMutability": "view",
      "type": "function"
    },
    {
      "inputs": [
        {
          "internalType": "uint256",
          "name": "voteId",
          "type": "uint256"
        },
        {
          "internalType": "uint256",
          "name": "candidateId",
          "type": "uint256"
        }
      ],
      "name": "vote",
      "outputs": [],
      "stateMutability": "nonpayable",
      "type": "function"
    }
  ],
  "bytecode": "0x608060405234801561000f575f80fd5b5060405161087438038061087483398181016040528101906100319190610114565b335f806101000a81548173ffffffffffffffffffffffffffffffffffffffff021916908373ffffffffffffffffffffffffffffffffffffffff1602179055508060015f6101000a81548173ffffffffffffffffffffffffffffffffffffffff021916908373ffffffffffffffffffffffffffffffffffffffff1602179055505061013f565b5f80fd5b5f73ffffffffffffffffffffffffffffffffffffffff82169050919050565b5f6100e3826100ba565b9050919050565b6100f3816100d9565b81146100fd575f80fd5b50565b5f8151905061010e816100ea565b92915050565b5f60208284031215610129576101286100b6565b5b5f61013684828501610100565b91505092915050565b6107288061014c5f395ff3fe608060405234801561000f575f80fd5b506004361061004a575f3560e01c80632ef76b001461004e578063425458251461006c5780638da5cb5b1461009c578063b384abef146100ba575b5f80fd5b6100566100d6565b6040516100639190610431565b60405180910390f35b610086600480360381019061008191906104ab565b6100fb565b6040516100939190610503565b60405180910390f35b6100a4610125565b6040516100b19190610431565b60405180910390f35b6100d460048036038101906100cf919061051c565b610148565b005b60015f9054906101000a900473ffffffffffffffffffffffffffffffffffffffff1681565b6002602052815f5260405f20602052805f5260405f205f915091509054906101000a900460ff1681565b5f8054906101000a900473ffffffffffffffffffffffffffffffffffffffff1681565b60025f3373ffffffffffffffffffffffffffffffffffffffff1673ffffffffffffffffffffffffffffffffffffffff1681526020019081526020015f205f8381526020019081526020015f205f9054906101000a900460ff16156101e1576040517f08c379a00000000000000000000000000000000000000000000000000000000081526004016101d8906105b4565b60405180910390fd5b5f60015f9054906101000a900473ffffffffffffffffffffffffffffffffffffffff1673ffffffffffffffffffffffffffffffffffffffff16838360405160240161022d9291906105e1565b6040516020818303038152906040527f355b33b0000000000000000000000000000000000000000000000000000000007bffffffffffffffffffffffffffffffffffffffffffffffffffffffff19166020820180517bffffffffffffffffffffffffffffffffffffffffffffffffffffffff83818316178352505050506040516102b79190610674565b5f604051808303815f865af19150503d805f81146102f0576040519150601f19603f3d011682016040523d82523d5f602084013e6102f5565b606091505b5050905080610339576040517f08c379a0000000000000000000000000000000000000000000000000000000008152600401610330906106d4565b60405180910390fd5b600160025f3373ffffffffffffffffffffffffffffffffffffffff1673ffffffffffffffffffffffffffffffffffffffff1681526020019081526020015f205f8581526020019081526020015f205f6101000a81548160ff0219169083151502179055503373ffffffffffffffffffffffffffffffffffffffff167fea66f58e474bc09f580000e81f31b334d171db387d0c6098ba47bd897741679b84846040516103e59291906105e1565b60405180910390a2505050565b5f73ffffffffffffffffffffffffffffffffffffffff82169050919050565b5f61041b826103f2565b9050919050565b61042b81610411565b82525050565b5f6020820190506104445f830184610422565b92915050565b5f80fd5b61045781610411565b8114610461575f80fd5b50565b5f813590506104728161044e565b92915050565b5f819050919050565b61048a81610478565b8114610494575f80fd5b50565b5f813590506104a581610481565b92915050565b5f80604083850312156104c1576104c061044a565b5b5f6104ce85828601610464565b92505060206104df85828601610497565b9150509250929050565b5f8115159050919050565b6104fd816104e9565b82525050565b5f6020820190506105165f8301846104f4565b92915050565b5f80604083850312156105325761053161044a565b5b5f61053f85828601610497565b925050602061055085828601610497565b9150509250929050565b5f82825260208201905092915050565b7f596f75206861766520616c726561647920766f746564000000000000000000005f82015250565b5f61059e60168361055a565b91506105a98261056a565b602082019050919050565b5f6020820190508181035f8301526105cb81610592565b9050919050565b6105db81610478565b82525050565b5f6040820190506105f45f8301856105d2565b61060160208301846105d2565b9392505050565b5f81519050919050565b5f81905092915050565b5f5b8381101561063957808201518184015260208101905061061e565b5f8484015250505050565b5f61064e82610608565b6106588185610612565b935061066881856020860161061c565b80840191505092915050565b5f61067f8284610644565b915081905092915050565b7f566f746520636f756e7420757064617465206661696c656400000000000000005f82015250565b5f6106be60188361055a565b91506106c98261068a565b602082019050919050565b5f6020820190508181035f8301526106eb816106b2565b905091905056fea2646970667358221220d2fa59f9e448199353a8b77c686a617fc595a21c67607f02039aa935470d0f1964736f6c63430008150033",
  "immutableReferences": {},
  "source": "// SPDX-License-Identifier: MIT\npragma solidity ^0.8.0;\n\ncontract CastVote {\n    address public owner;\n    address public createVoteContract;\n    mapping(address => mapping(uint => bool)) public hasVoted;\n\n    event Voted(address indexed voter, uint voteId, uint candidateId);\n\n    modifier onlyOwner() {\n        require(msg.sender == owner, \"Only owner can call this function\");\n        _;\n    }\n\n    constructor(address _createVoteContract) {\n        owner = msg.sender;\n        createVoteContract = _createVoteContract;\n    }\n\n    function vote(uint voteId, uint candidateId) public {\n        require(!hasVoted[msg.sender][voteId], \"You have already voted\");\n\n        // Call CreateVote contract to increment vote count\n        (bool success, ) = createVoteContract.call(\n            abi.encodeWithSignature(\"incrementVoteCount(uint256,uint256)\", voteId, candidateId)\n        );\n        require(success, \"Vote count update failed\");\n\n        hasVoted[msg.sender][voteId] = true;\n        emit Voted(msg.sender, voteId, candidateId);\n    }\n}\n",
  "sourcePath": "/home/arkapravadhar/Desktop/VoteChain/contracts/CastVote.sol",
  "compiler": {
    "name": "solc",
    "version": "0.8.21+commit.d9974bed.Emscripten.clang"
  },
  "schemaVersion": "3.4.16",
  "updatedAt": "2025-02-18T11:15:35.842Z",
  "devdoc": {
    "kind": "dev",
    "methods": {},
    "version": 1
  },
  "userdoc": {
    "kind": "user",
    "methods": {},
    "version": 1
  }
}