{
  "contractName": "CreateVote",
  "abi": [
    {
      "inputs": [],
      "stateMutability": "nonpayable",
      "type": "constructor"
    },
    {
      "anonymous": false,
      "inputs": [
        {
          "indexed": false,
          "internalType": "uint256",
          "name": "voteId",
          "type": "uint256"
        },
        {
          "indexed": false,
          "internalType": "uint256",
          "name": "candidateId",
          "type": "uint256"
        },
        {
          "indexed": false,
          "internalType": "string",
          "name": "name",
          "type": "string"
        }
      ],
      "name": "CandidateAdded",
      "type": "event"
    },
    {
      "anonymous": false,
      "inputs": [
        {
          "indexed": false,
          "internalType": "uint256",
          "name": "voteId",
          "type": "uint256"
        },
        {
          "indexed": false,
          "internalType": "string",
          "name": "title",
          "type": "string"
        }
      ],
      "name": "VoteCreated",
      "type": "event"
    },
    {
      "inputs": [],
      "name": "owner",
      "outputs": [
        {
          "internalType": "address",
          "name": "",
          "type": "address"
        }
      ],
      "stateMutability": "view",
      "type": "function"
    },
    {
      "inputs": [],
      "name": "voteCount",
      "outputs": [
        {
          "internalType": "uint256",
          "name": "",
          "type": "uint256"
        }
      ],
      "stateMutability": "view",
      "type": "function"
    },
    {
      "inputs": [
        {
          "internalType": "uint256",
          "name": "",
          "type": "uint256"
        }
      ],
      "name": "votes",
      "outputs": [
        {
          "internalType": "uint256",
          "name": "id",
          "type": "uint256"
        },
        {
          "internalType": "string",
          "name": "title",
          "type": "string"
        },
        {
          "internalType": "bool",
          "name": "isActive",
          "type": "bool"
        }
      ],
      "stateMutability": "view",
      "type": "function"
    },
    {
      "inputs": [
        {
          "internalType": "string",
          "name": "title",
          "type": "string"
        },
        {
          "internalType": "string[]",
          "name": "candidateNames",
          "type": "string[]"
        }
      ],
      "name": "createVote",
      "outputs": [],
      "stateMutability": "nonpayable",
      "type": "function"
    },
    {
      "inputs": [
        {
          "internalType": "uint256",
          "name": "voteId",
          "type": "uint256"
        }
      ],
      "name": "endVote",
      "outputs": [],
      "stateMutability": "nonpayable",
      "type": "function"
    },
    {
      "inputs": [
        {
          "internalType": "uint256",
          "name": "voteId",
          "type": "uint256"
        },
        {
          "internalType": "uint256",
          "name": "candidateId",
          "type": "uint256"
        }
      ],
      "name": "getCandidate",
      "outputs": [
        {
          "internalType": "string",
          "name": "",
          "type": "string"
        },
        {
          "internalType": "uint256",
          "name": "",
          "type": "uint256"
        }
      ],
      "stateMutability": "view",
      "type": "function"
    },
    {
      "inputs": [
        {
          "internalType": "uint256",
          "name": "voteId",
          "type": "uint256"
        },
        {
          "internalType": "uint256",
          "name": "candidateId",
          "type": "uint256"
        }
      ],
      "name": "incrementVoteCount",
      "outputs": [],
      "stateMutability": "nonpayable",
      "type": "function"
    }
  ],
  "bytecode": "0x608060405234801561000f575f80fd5b503360025f6101000a81548173ffffffffffffffffffffffffffffffffffffffff021916908373ffffffffffffffffffffffffffffffffffffffff1602179055506113f48061005d5f395ff3fe608060405234801561000f575f80fd5b506004361061007b575f3560e01c8063865df0ad11610059578063865df0ad146100fe5780638da5cb5b1461011a57806390a3a11f14610138578063c6384071146101545761007b565b8063355b33b01461007f5780634bd464481461009b5780635df81330146100cc575b5f80fd5b61009960048036038101906100949190610943565b610172565b005b6100b560048036038101906100b09190610943565b6102de565b6040516100c3929190610a1a565b60405180910390f35b6100e660048036038101906100e19190610a48565b610499565b6040516100f593929190610a8d565b60405180910390f35b61011860048036038101906101139190610a48565b610550565b005b61012261065c565b60405161012f9190610b08565b60405180910390f35b610152600480360381019061014d9190610d2f565b610681565b005b61015c6108f9565b6040516101699190610da5565b60405180910390f35b5f8211801561018357506001548211155b6101c2576040517f08c379a00000000000000000000000000000000000000000000000000000000081526004016101b990610e08565b60405180910390fd5b5f811180156101e757505f808381526020019081526020015f20600201805490508111155b610226576040517f08c379a000000000000000000000000000000000000000000000000000000000815260040161021d90610e70565b60405180910390fd5b5f808381526020019081526020015f206003015f9054906101000a900460ff16610285576040517f08c379a000000000000000000000000000000000000000000000000000000000815260040161027c90610ed8565b60405180910390fd5b5f808381526020019081526020015f206002016001826102a59190610f23565b815481106102b6576102b5610f56565b5b905f5260205f2090600302016002015f8154809291906102d590610f83565b91905055505050565b60605f80841180156102f257506001548411155b610331576040517f08c379a000000000000000000000000000000000000000000000000000000000815260040161032890610e08565b60405180910390fd5b5f8311801561035657505f808581526020019081526020015f20600201805490508311155b610395576040517f08c379a000000000000000000000000000000000000000000000000000000000815260040161038c90610e70565b60405180910390fd5b5f805f8681526020019081526020015f206002016001856103b69190610f23565b815481106103c7576103c6610f56565b5b905f5260205f2090600302016040518060600160405290815f82015481526020016001820180546103f790610ff7565b80601f016020809104026020016040519081016040528092919081815260200182805461042390610ff7565b801561046e5780601f106104455761010080835404028352916020019161046e565b820191905f5260205f20905b81548152906001019060200180831161045157829003601f168201915b5050505050815260200160028201548152505090508060200151816040015192509250509250929050565b5f602052805f5260405f205f91509050805f0154908060010180546104bd90610ff7565b80601f01602080910402602001604051908101604052809291908181526020018280546104e990610ff7565b80156105345780601f1061050b57610100808354040283529160200191610534565b820191905f5260205f20905b81548152906001019060200180831161051757829003601f168201915b505050505090806003015f9054906101000a900460ff16905083565b60025f9054906101000a900473ffffffffffffffffffffffffffffffffffffffff1673ffffffffffffffffffffffffffffffffffffffff163373ffffffffffffffffffffffffffffffffffffffff16146105df576040517f08c379a00000000000000000000000000000000000000000000000000000000081526004016105d690611097565b60405180910390fd5b5f811180156105f057506001548111155b61062f576040517f08c379a000000000000000000000000000000000000000000000000000000000815260040161062690610e08565b60405180910390fd5b5f805f8381526020019081526020015f206003015f6101000a81548160ff02191690831515021790555050565b60025f9054906101000a900473ffffffffffffffffffffffffffffffffffffffff1681565b60025f9054906101000a900473ffffffffffffffffffffffffffffffffffffffff1673ffffffffffffffffffffffffffffffffffffffff163373ffffffffffffffffffffffffffffffffffffffff1614610710576040517f08c379a000000000000000000000000000000000000000000000000000000000815260040161070790611097565b60405180910390fd5b60015f81548092919061072290610f83565b91905055506001545f8060015481526020019081526020015f205f0181905550815f8060015481526020019081526020015f2060010190816107649190611252565b5060015f8060015481526020019081526020015f206003015f6101000a81548160ff0219169083151502179055505f5b81518110156108b9575f8060015481526020019081526020015f2060020160405180606001604052806001846107ca9190611321565b81526020018484815181106107e2576107e1610f56565b5b602002602001015181526020015f815250908060018154018082558091505060019003905f5260205f2090600302015f909190919091505f820151815f015560208201518160010190816108369190611252565b506040820151816002015550507fed8911b3df733b7d5f75724158e54478ea12e30f49c9d31b5261879f5b76586f6001546001836108749190611321565b84848151811061088757610886610f56565b5b602002602001015160405161089e93929190611354565b60405180910390a180806108b190610f83565b915050610794565b507f8225b3ad6e66d4c2342e977fbab464beaf3ae9d33b222938cff268dfd7b55b83600154836040516108ed929190611390565b60405180910390a15050565b60015481565b5f604051905090565b5f80fd5b5f80fd5b5f819050919050565b61092281610910565b811461092c575f80fd5b50565b5f8135905061093d81610919565b92915050565b5f806040838503121561095957610958610908565b5b5f6109668582860161092f565b92505060206109778582860161092f565b9150509250929050565b5f81519050919050565b5f82825260208201905092915050565b5f5b838110156109b857808201518184015260208101905061099d565b5f8484015250505050565b5f601f19601f8301169050919050565b5f6109dd82610981565b6109e7818561098b565b93506109f781856020860161099b565b610a00816109c3565b840191505092915050565b610a1481610910565b82525050565b5f6040820190508181035f830152610a3281856109d3565b9050610a416020830184610a0b565b9392505050565b5f60208284031215610a5d57610a5c610908565b5b5f610a6a8482850161092f565b91505092915050565b5f8115159050919050565b610a8781610a73565b82525050565b5f606082019050610aa05f830186610a0b565b8181036020830152610ab281856109d3565b9050610ac16040830184610a7e565b949350505050565b5f73ffffffffffffffffffffffffffffffffffffffff82169050919050565b5f610af282610ac9565b9050919050565b610b0281610ae8565b82525050565b5f602082019050610b1b5f830184610af9565b92915050565b5f80fd5b5f80fd5b7f4e487b71000000000000000000000000000000000000000000000000000000005f52604160045260245ffd5b610b5f826109c3565b810181811067ffffffffffffffff82111715610b7e57610b7d610b29565b5b80604052505050565b5f610b906108ff565b9050610b9c8282610b56565b919050565b5f67ffffffffffffffff821115610bbb57610bba610b29565b5b610bc4826109c3565b9050602081019050919050565b828183375f83830152505050565b5f610bf1610bec84610ba1565b610b87565b905082815260208101848484011115610c0d57610c0c610b25565b5b610c18848285610bd1565b509392505050565b5f82601f830112610c3457610c33610b21565b5b8135610c44848260208601610bdf565b91505092915050565b5f67ffffffffffffffff821115610c6757610c66610b29565b5b602082029050602081019050919050565b5f80fd5b5f610c8e610c8984610c4d565b610b87565b90508083825260208201905060208402830185811115610cb157610cb0610c78565b5b835b81811015610cf857803567ffffffffffffffff811115610cd657610cd5610b21565b5b808601610ce38982610c20565b85526020850194505050602081019050610cb3565b5050509392505050565b5f82601f830112610d1657610d15610b21565b5b8135610d26848260208601610c7c565b91505092915050565b5f8060408385031215610d4557610d44610908565b5b5f83013567ffffffffffffffff811115610d6257610d6161090c565b5b610d6e85828601610c20565b925050602083013567ffffffffffffffff811115610d8f57610d8e61090c565b5b610d9b85828601610d02565b9150509250929050565b5f602082019050610db85f830184610a0b565b92915050565b7f496e76616c696420766f746520494400000000000000000000000000000000005f82015250565b5f610df2600f8361098b565b9150610dfd82610dbe565b602082019050919050565b5f6020820190508181035f830152610e1f81610de6565b9050919050565b7f496e76616c69642063616e6469646174652049440000000000000000000000005f82015250565b5f610e5a60148361098b565b9150610e6582610e26565b602082019050919050565b5f6020820190508181035f830152610e8781610e4e565b9050919050565b7f566f74696e672068617320656e646564000000000000000000000000000000005f82015250565b5f610ec260108361098b565b9150610ecd82610e8e565b602082019050919050565b5f6020820190508181035f830152610eef81610eb6565b9050919050565b7f4e487b71000000000000000000000000000000000000000000000000000000005f52601160045260245ffd5b5f610f2d82610910565b9150610f3883610910565b9250828203905081811115610f5057610f4f610ef6565b5b92915050565b7f4e487b71000000000000000000000000000000000000000000000000000000005f52603260045260245ffd5b5f610f8d82610910565b91507fffffffffffffffffffffffffffffffffffffffffffffffffffffffffffffffff8203610fbf57610fbe610ef6565b5b600182019050919050565b7f4e487b71000000000000000000000000000000000000000000000000000000005f52602260045260245ffd5b5f600282049050600182168061100e57607f821691505b60208210810361102157611020610fca565b5b50919050565b7f4f6e6c79206f776e65722063616e2063616c6c20746869732066756e6374696f5f8201527f6e00000000000000000000000000000000000000000000000000000000000000602082015250565b5f61108160218361098b565b915061108c82611027565b604082019050919050565b5f6020820190508181035f8301526110ae81611075565b9050919050565b5f819050815f5260205f209050919050565b5f6020601f8301049050919050565b5f82821b905092915050565b5f600883026111117fffffffffffffffffffffffffffffffffffffffffffffffffffffffffffffffff826110d6565b61111b86836110d6565b95508019841693508086168417925050509392505050565b5f819050919050565b5f61115661115161114c84610910565b611133565b610910565b9050919050565b5f819050919050565b61116f8361113c565b61118361117b8261115d565b8484546110e2565b825550505050565b5f90565b61119761118b565b6111a2818484611166565b505050565b5b818110156111c5576111ba5f8261118f565b6001810190506111a8565b5050565b601f82111561120a576111db816110b5565b6111e4846110c7565b810160208510156111f3578190505b6112076111ff856110c7565b8301826111a7565b50505b505050565b5f82821c905092915050565b5f61122a5f198460080261120f565b1980831691505092915050565b5f611242838361121b565b9150826002028217905092915050565b61125b82610981565b67ffffffffffffffff81111561127457611273610b29565b5b61127e8254610ff7565b6112898282856111c9565b5f60209050601f8311600181146112ba575f84156112a8578287015190505b6112b28582611237565b865550611319565b601f1984166112c8866110b5565b5f5b828110156112ef578489015182556001820191506020850194506020810190506112ca565b8683101561130c5784890151611308601f89168261121b565b8355505b6001600288020188555050505b505050505050565b5f61132b82610910565b915061133683610910565b925082820190508082111561134e5761134d610ef6565b5b92915050565b5f6060820190506113675f830186610a0b565b6113746020830185610a0b565b818103604083015261138681846109d3565b9050949350505050565b5f6040820190506113a35f830185610a0b565b81810360208301526113b581846109d3565b9050939250505056fea2646970667358221220066ceaf4e5cb983b6ce290ad17628fb066e8f8311ba9f12f4e49fbaa3b4f70d964736f6c63430008150033",
  "immutableReferences": {},
  "source": "// SPDX-License-Identifier: MIT\npragma solidity ^0.8.0;\n\ncontract CreateVote {\n    struct Candidate {\n        uint id;\n        string name;\n        uint voteCount;\n    }\n\n    struct Vote {\n        uint id;\n        string title;\n        Candidate[] candidates; //  Replacing mapping with an array\n        bool isActive;\n    }\n\n    mapping(uint => Vote) public votes;\n    uint public voteCount;\n    address public owner;\n\n    event VoteCreated(uint voteId, string title);\n    event CandidateAdded(uint voteId, uint candidateId, string name);\n\n    modifier onlyOwner() {\n        require(msg.sender == owner, \"Only owner can call this function\");\n        _;\n    }\n\n    constructor() {\n        owner = msg.sender;\n    }\n\n    function createVote(string memory title, string[] memory candidateNames) public onlyOwner {\n        voteCount++;\n        votes[voteCount].id = voteCount;\n        votes[voteCount].title = title;\n        votes[voteCount].isActive = true;\n\n        for (uint i = 0; i < candidateNames.length; i++) {\n            votes[voteCount].candidates.push(Candidate(i + 1, candidateNames[i], 0));\n            emit CandidateAdded(voteCount, i + 1, candidateNames[i]);\n        }\n\n        emit VoteCreated(voteCount, title);\n    }\n\n    function endVote(uint voteId) public onlyOwner {\n        require(voteId > 0 && voteId <= voteCount, \"Invalid vote ID\");\n        votes[voteId].isActive = false;\n    }\n\n    function getCandidate(uint voteId, uint candidateId) public view returns (string memory, uint) {\n        require(voteId > 0 && voteId <= voteCount, \"Invalid vote ID\");\n        require(candidateId > 0 && candidateId <= votes[voteId].candidates.length, \"Invalid candidate ID\");\n\n        Candidate memory candidate = votes[voteId].candidates[candidateId - 1];\n        return (candidate.name, candidate.voteCount);\n    }\n\n    function incrementVoteCount(uint voteId, uint candidateId) public {\n        require(voteId > 0 && voteId <= voteCount, \"Invalid vote ID\");\n        require(candidateId > 0 && candidateId <= votes[voteId].candidates.length, \"Invalid candidate ID\");\n        require(votes[voteId].isActive, \"Voting has ended\");\n\n        votes[voteId].candidates[candidateId - 1].voteCount++;\n    }\n}\n",
  "sourcePath": "/home/arkapravadhar/Desktop/VoteChain/contracts/CreateVote.sol",
  "compiler": {
    "name": "solc",
    "version": "0.8.21+commit.d9974bed.Emscripten.clang"
  },
  "schemaVersion": "3.4.16",
  "updatedAt": "2025-02-18T11:24:12.898Z",
  "devdoc": {
    "kind": "dev",
    "methods": {},
    "version": 1
  },
  "userdoc": {
    "kind": "user",
    "methods": {},
    "version": 1
  }
}