{
  "contractName": "CreateVote",
  "abi": [
    {
      "inputs": [],
      "stateMutability": "nonpayable",
      "type": "constructor"
    },
    {
      "anonymous": false,
      "inputs": [
        {
          "indexed": false,
          "internalType": "uint256",
          "name": "voteId",
          "type": "uint256"
        },
        {
          "indexed": false,
          "internalType": "uint256",
          "name": "candidateId",
          "type": "uint256"
        },
        {
          "indexed": false,
          "internalType": "string",
          "name": "name",
          "type": "string"
        }
      ],
      "name": "CandidateAdded",
      "type": "event"
    },
    {
      "anonymous": false,
      "inputs": [
        {
          "indexed": false,
          "internalType": "uint256",
          "name": "voteId",
          "type": "uint256"
        },
        {
          "indexed": false,
          "internalType": "string",
          "name": "title",
          "type": "string"
        }
      ],
      "name": "VoteCreated",
      "type": "event"
    },
    {
      "inputs": [],
      "name": "owner",
      "outputs": [
        {
          "internalType": "address",
          "name": "",
          "type": "address"
        }
      ],
      "stateMutability": "view",
      "type": "function",
      "constant": true
    },
    {
      "inputs": [],
      "name": "voteCount",
      "outputs": [
        {
          "internalType": "uint256",
          "name": "",
          "type": "uint256"
        }
      ],
      "stateMutability": "view",
      "type": "function",
      "constant": true
    },
    {
      "inputs": [
        {
          "internalType": "uint256",
          "name": "",
          "type": "uint256"
        }
      ],
      "name": "votes",
      "outputs": [
        {
          "internalType": "uint256",
          "name": "id",
          "type": "uint256"
        },
        {
          "internalType": "string",
          "name": "title",
          "type": "string"
        },
        {
          "internalType": "uint256",
          "name": "candidateCount",
          "type": "uint256"
        },
        {
          "internalType": "bool",
          "name": "isActive",
          "type": "bool"
        },
        {
          "internalType": "uint256",
          "name": "startDate",
          "type": "uint256"
        },
        {
          "internalType": "uint256",
          "name": "endDate",
          "type": "uint256"
        }
      ],
      "stateMutability": "view",
      "type": "function",
      "constant": true
    },
    {
      "inputs": [
        {
          "internalType": "string",
          "name": "title",
          "type": "string"
        },
        {
          "internalType": "string[]",
          "name": "candidateNames",
          "type": "string[]"
        },
        {
          "internalType": "uint256",
          "name": "startDate",
          "type": "uint256"
        },
        {
          "internalType": "uint256",
          "name": "endDate",
          "type": "uint256"
        }
      ],
      "name": "createVote",
      "outputs": [],
      "stateMutability": "nonpayable",
      "type": "function"
    },
    {
      "inputs": [
        {
          "internalType": "uint256",
          "name": "voteId",
          "type": "uint256"
        }
      ],
      "name": "endVote",
      "outputs": [],
      "stateMutability": "nonpayable",
      "type": "function"
    },
    {
      "inputs": [
        {
          "internalType": "uint256",
          "name": "voteId",
          "type": "uint256"
        },
        {
          "internalType": "uint256",
          "name": "candidateId",
          "type": "uint256"
        }
      ],
      "name": "getCandidate",
      "outputs": [
        {
          "internalType": "string",
          "name": "",
          "type": "string"
        },
        {
          "internalType": "uint256",
          "name": "",
          "type": "uint256"
        }
      ],
      "stateMutability": "view",
      "type": "function",
      "constant": true
    },
    {
      "inputs": [
        {
          "internalType": "uint256",
          "name": "voteId",
          "type": "uint256"
        },
        {
          "internalType": "uint256",
          "name": "candidateId",
          "type": "uint256"
        }
      ],
      "name": "incrementVoteCount",
      "outputs": [],
      "stateMutability": "nonpayable",
      "type": "function"
    }
  ],
  "bytecode": "0x608060405234801561001057600080fd5b5033600260006101000a81548173ffffffffffffffffffffffffffffffffffffffff021916908373ffffffffffffffffffffffffffffffffffffffff1602179055506116e1806100616000396000f3fe608060405234801561001057600080fd5b506004361061007d5760003560e01c8063865df0ad1161005b578063865df0ad146101045780638da5cb5b14610120578063c63840711461013e578063efef28bb1461015c5761007d565b8063355b33b0146100825780634bd464481461009e5780635df81330146100cf575b600080fd5b61009c60048036038101906100979190610a7b565b610178565b005b6100b860048036038101906100b39190610a7b565b6103a0565b6040516100c6929190610b5a565b60405180910390f35b6100e960048036038101906100e49190610b8a565b610558565b6040516100fb96959493929190610bd2565b60405180910390f35b61011e60048036038101906101199190610b8a565b610629565b005b610128610793565b6040516101359190610c7b565b60405180910390f35b6101466107b9565b6040516101539190610c96565b60405180910390f35b61017660048036038101906101719190610ecc565b6107bf565b005b60008211801561018a57506001548211155b6101c9576040517f08c379a00000000000000000000000000000000000000000000000000000000081526004016101c090610fb7565b60405180910390fd5b6000811180156101f15750600080838152602001908152602001600020600201805490508111155b610230576040517f08c379a000000000000000000000000000000000000000000000000000000000815260040161022790611023565b60405180910390fd5b60008083815260200190815260200160002060040160009054906101000a900460ff16610292576040517f08c379a00000000000000000000000000000000000000000000000000000000081526004016102899061108f565b60405180910390fd5b600080838152602001908152602001600020600501544210156102ea576040517f08c379a00000000000000000000000000000000000000000000000000000000081526004016102e1906110fb565b60405180910390fd5b60008083815260200190815260200160002060060154421115610342576040517f08c379a000000000000000000000000000000000000000000000000000000000815260040161033990611167565b60405180910390fd5b60008083815260200190815260200160002060020160018261036491906111b6565b81548110610375576103746111ea565b5b9060005260206000209060030201600201600081548092919061039790611219565b91905055505050565b6060600080841180156103b557506001548411155b6103f4576040517f08c379a00000000000000000000000000000000000000000000000000000000081526004016103eb90610fb7565b60405180910390fd5b6000831180156104195750600080858152602001908152602001600020600301548311155b610458576040517f08c379a000000000000000000000000000000000000000000000000000000000815260040161044f90611023565b60405180910390fd5b60008060008681526020019081526020016000206002018481548110610481576104806111ea565b5b9060005260206000209060030201604051806060016040529081600082015481526020016001820180546104b490611290565b80601f01602080910402602001604051908101604052809291908181526020018280546104e090611290565b801561052d5780601f106105025761010080835404028352916020019161052d565b820191906000526020600020905b81548152906001019060200180831161051057829003601f168201915b5050505050815260200160028201548152505090508060200151816040015192509250509250929050565b600060205280600052604060002060009150905080600001549080600101805461058190611290565b80601f01602080910402602001604051908101604052809291908181526020018280546105ad90611290565b80156105fa5780601f106105cf576101008083540402835291602001916105fa565b820191906000526020600020905b8154815290600101906020018083116105dd57829003601f168201915b5050505050908060030154908060040160009054906101000a900460ff16908060050154908060060154905086565b600260009054906101000a900473ffffffffffffffffffffffffffffffffffffffff1673ffffffffffffffffffffffffffffffffffffffff163373ffffffffffffffffffffffffffffffffffffffff16146106b9576040517f08c379a00000000000000000000000000000000000000000000000000000000081526004016106b090611333565b60405180910390fd5b6000811180156106cb57506001548111155b61070a576040517f08c379a000000000000000000000000000000000000000000000000000000000815260040161070190610fb7565b60405180910390fd5b60008082815260200190815260200160002060060154421015610762576040517f08c379a00000000000000000000000000000000000000000000000000000000081526004016107599061139f565b60405180910390fd5b600080600083815260200190815260200160002060040160006101000a81548160ff02191690831515021790555050565b600260009054906101000a900473ffffffffffffffffffffffffffffffffffffffff1681565b60015481565b600260009054906101000a900473ffffffffffffffffffffffffffffffffffffffff1673ffffffffffffffffffffffffffffffffffffffff163373ffffffffffffffffffffffffffffffffffffffff161461084f576040517f08c379a000000000000000000000000000000000000000000000000000000000815260040161084690611333565b60405180910390fd5b6001600081548092919061086290611219565b919050555060008060006001548152602001908152602001600020905060015481600001819055508481600101908161089b919061156b565b5060018160040160006101000a81548160ff02191690831515021790555082816005018190555081816006018190555060005b84518110156109ee578160030160008154809291906108ec90611219565b9190505550604051806060016040528083600301548152602001868381518110610919576109186111ea565b5b60200260200101518152602001600081525082600201836003015481548110610945576109446111ea565b5b9060005260206000209060030201600082015181600001556020820151816001019081610972919061156b565b50604082015181600201559050507fed8911b3df733b7d5f75724158e54478ea12e30f49c9d31b5261879f5b76586f60015483600301548784815181106109bc576109bb6111ea565b5b60200260200101516040516109d39392919061163d565b60405180910390a180806109e690611219565b9150506108ce565b507f8225b3ad6e66d4c2342e977fbab464beaf3ae9d33b222938cff268dfd7b55b8360015486604051610a2292919061167b565b60405180910390a15050505050565b6000604051905090565b600080fd5b600080fd5b6000819050919050565b610a5881610a45565b8114610a6357600080fd5b50565b600081359050610a7581610a4f565b92915050565b60008060408385031215610a9257610a91610a3b565b5b6000610aa085828601610a66565b9250506020610ab185828601610a66565b9150509250929050565b600081519050919050565b600082825260208201905092915050565b60005b83811015610af5578082015181840152602081019050610ada565b60008484015250505050565b6000601f19601f8301169050919050565b6000610b1d82610abb565b610b278185610ac6565b9350610b37818560208601610ad7565b610b4081610b01565b840191505092915050565b610b5481610a45565b82525050565b60006040820190508181036000830152610b748185610b12565b9050610b836020830184610b4b565b9392505050565b600060208284031215610ba057610b9f610a3b565b5b6000610bae84828501610a66565b91505092915050565b60008115159050919050565b610bcc81610bb7565b82525050565b600060c082019050610be76000830189610b4b565b8181036020830152610bf98188610b12565b9050610c086040830187610b4b565b610c156060830186610bc3565b610c226080830185610b4b565b610c2f60a0830184610b4b565b979650505050505050565b600073ffffffffffffffffffffffffffffffffffffffff82169050919050565b6000610c6582610c3a565b9050919050565b610c7581610c5a565b82525050565b6000602082019050610c906000830184610c6c565b92915050565b6000602082019050610cab6000830184610b4b565b92915050565b600080fd5b600080fd5b7f4e487b7100000000000000000000000000000000000000000000000000000000600052604160045260246000fd5b610cf382610b01565b810181811067ffffffffffffffff82111715610d1257610d11610cbb565b5b80604052505050565b6000610d25610a31565b9050610d318282610cea565b919050565b600067ffffffffffffffff821115610d5157610d50610cbb565b5b610d5a82610b01565b9050602081019050919050565b82818337600083830152505050565b6000610d89610d8484610d36565b610d1b565b905082815260208101848484011115610da557610da4610cb6565b5b610db0848285610d67565b509392505050565b600082601f830112610dcd57610dcc610cb1565b5b8135610ddd848260208601610d76565b91505092915050565b600067ffffffffffffffff821115610e0157610e00610cbb565b5b602082029050602081019050919050565b600080fd5b6000610e2a610e2584610de6565b610d1b565b90508083825260208201905060208402830185811115610e4d57610e4c610e12565b5b835b81811015610e9457803567ffffffffffffffff811115610e7257610e71610cb1565b5b808601610e7f8982610db8565b85526020850194505050602081019050610e4f565b5050509392505050565b600082601f830112610eb357610eb2610cb1565b5b8135610ec3848260208601610e17565b91505092915050565b60008060008060808587031215610ee657610ee5610a3b565b5b600085013567ffffffffffffffff811115610f0457610f03610a40565b5b610f1087828801610db8565b945050602085013567ffffffffffffffff811115610f3157610f30610a40565b5b610f3d87828801610e9e565b9350506040610f4e87828801610a66565b9250506060610f5f87828801610a66565b91505092959194509250565b7f496e76616c696420766f74652049440000000000000000000000000000000000600082015250565b6000610fa1600f83610ac6565b9150610fac82610f6b565b602082019050919050565b60006020820190508181036000830152610fd081610f94565b9050919050565b7f496e76616c69642063616e646964617465204944000000000000000000000000600082015250565b600061100d601483610ac6565b915061101882610fd7565b602082019050919050565b6000602082019050818103600083015261103c81611000565b9050919050565b7f566f74696e672068617320656e64656400000000000000000000000000000000600082015250565b6000611079601083610ac6565b915061108482611043565b602082019050919050565b600060208201905081810360008301526110a88161106c565b9050919050565b7f566f74696e6720686173206e6f74207374617274656420796574000000000000600082015250565b60006110e5601a83610ac6565b91506110f0826110af565b602082019050919050565b60006020820190508181036000830152611114816110d8565b9050919050565b7f566f74696e6720706572696f642068617320656e646564000000000000000000600082015250565b6000611151601783610ac6565b915061115c8261111b565b602082019050919050565b6000602082019050818103600083015261118081611144565b9050919050565b7f4e487b7100000000000000000000000000000000000000000000000000000000600052601160045260246000fd5b60006111c182610a45565b91506111cc83610a45565b92508282039050818111156111e4576111e3611187565b5b92915050565b7f4e487b7100000000000000000000000000000000000000000000000000000000600052603260045260246000fd5b600061122482610a45565b91507fffffffffffffffffffffffffffffffffffffffffffffffffffffffffffffffff820361125657611255611187565b5b600182019050919050565b7f4e487b7100000000000000000000000000000000000000000000000000000000600052602260045260246000fd5b600060028204905060018216806112a857607f821691505b6020821081036112bb576112ba611261565b5b50919050565b7f4f6e6c79206f776e65722063616e2063616c6c20746869732066756e6374696f60008201527f6e00000000000000000000000000000000000000000000000000000000000000602082015250565b600061131d602183610ac6565b9150611328826112c1565b604082019050919050565b6000602082019050818103600083015261134c81611310565b9050919050565b7f566f74696e6720706572696f6420686173206e6f7420656e6465642079657400600082015250565b6000611389601f83610ac6565b915061139482611353565b602082019050919050565b600060208201905081810360008301526113b88161137c565b9050919050565b60008190508160005260206000209050919050565b60006020601f8301049050919050565b600082821b905092915050565b6000600883026114217fffffffffffffffffffffffffffffffffffffffffffffffffffffffffffffffff826113e4565b61142b86836113e4565b95508019841693508086168417925050509392505050565b6000819050919050565b600061146861146361145e84610a45565b611443565b610a45565b9050919050565b6000819050919050565b6114828361144d565b61149661148e8261146f565b8484546113f1565b825550505050565b600090565b6114ab61149e565b6114b6818484611479565b505050565b5b818110156114da576114cf6000826114a3565b6001810190506114bc565b5050565b601f82111561151f576114f0816113bf565b6114f9846113d4565b81016020851015611508578190505b61151c611514856113d4565b8301826114bb565b50505b505050565b600082821c905092915050565b600061154260001984600802611524565b1980831691505092915050565b600061155b8383611531565b9150826002028217905092915050565b61157482610abb565b67ffffffffffffffff81111561158d5761158c610cbb565b5b6115978254611290565b6115a28282856114de565b600060209050601f8311600181146115d557600084156115c3578287015190505b6115cd858261154f565b865550611635565b601f1984166115e3866113bf565b60005b8281101561160b578489015182556001820191506020850194506020810190506115e6565b868310156116285784890151611624601f891682611531565b8355505b6001600288020188555050505b505050505050565b60006060820190506116526000830186610b4b565b61165f6020830185610b4b565b81810360408301526116718184610b12565b9050949350505050565b60006040820190506116906000830185610b4b565b81810360208301526116a28184610b12565b9050939250505056fea2646970667358221220850fe96da6b7c6d814326251d12034f0b2b7294c98ff7b71be45102689d5b89664736f6c63430008130033",
  "immutableReferences": {},
  "source": "// SPDX-License-Identifier: MIT\npragma solidity ^0.8.19;\n\ncontract CreateVote {\n    struct Candidate {\n        uint id;\n        string name;\n        uint voteCount;\n    }\n\n    struct Vote {\n        uint id;\n        string title;\n        Candidate[] candidates;\n        uint candidateCount;\n        bool isActive;\n        uint startDate;\n        uint endDate;\n    }\n\n    mapping(uint => Vote) public votes;\n    uint public voteCount;\n    address public owner;\n\n    event VoteCreated(uint voteId, string title);\n    event CandidateAdded(uint voteId, uint candidateId, string name);\n\n    modifier onlyOwner() {\n        require(msg.sender == owner, \"Only owner can call this function\");\n        _;\n    }\n\n    constructor() {\n        owner = msg.sender;\n    }\n\n    function createVote(\n        string memory title,\n        string[] memory candidateNames,\n        uint startDate,\n        uint endDate\n    ) public onlyOwner {\n        voteCount++;\n        Vote storage newVote = votes[voteCount];\n        newVote.id = voteCount;\n        newVote.title = title;\n        newVote.isActive = true;\n        newVote.startDate = startDate;\n        newVote.endDate = endDate;\n\n        for (uint i = 0; i < candidateNames.length; i++) {\n            newVote.candidateCount++;\n            newVote.candidates[newVote.candidateCount] = Candidate(\n                newVote.candidateCount,\n                candidateNames[i],\n                0\n            );\n            emit CandidateAdded(\n                voteCount,\n                newVote.candidateCount,\n                candidateNames[i]\n            );\n        }\n\n        emit VoteCreated(voteCount, title);\n    }\n\n    function endVote(uint voteId) public onlyOwner {\n        require(voteId > 0 && voteId <= voteCount, \"Invalid vote ID\");\n        require(\n            block.timestamp >= votes[voteId].endDate,\n            \"Voting period has not ended yet\"\n        );\n\n        votes[voteId].isActive = false;\n    }\n\n    function getCandidate(\n        uint voteId,\n        uint candidateId\n    ) public view returns (string memory, uint) {\n        require(voteId > 0 && voteId <= voteCount, \"Invalid vote ID\");\n        require(\n            candidateId > 0 && candidateId <= votes[voteId].candidateCount,\n            \"Invalid candidate ID\"\n        );\n\n        Candidate memory candidate = votes[voteId].candidates[candidateId];\n        return (candidate.name, candidate.voteCount);\n    }\n\n    function incrementVoteCount(uint voteId, uint candidateId) public {\n        require(voteId > 0 && voteId <= voteCount, \"Invalid vote ID\");\n        require(\n            candidateId > 0 && candidateId <= votes[voteId].candidates.length,\n            \"Invalid candidate ID\"\n        );\n        require(votes[voteId].isActive, \"Voting has ended\");\n        require(\n            block.timestamp >= votes[voteId].startDate,\n            \"Voting has not started yet\"\n        );\n        require(\n            block.timestamp <= votes[voteId].endDate,\n            \"Voting period has ended\"\n        );\n\n        votes[voteId].candidates[candidateId - 1].voteCount++;\n    }\n}\n",
  "sourcePath": "/home/arkapravadhar/Desktop/VoteChain/contracts/CreateVote.sol",
  "compiler": {
    "name": "solc",
    "version": "0.8.19+commit.7dd6d404.Emscripten.clang"
  },
  "schemaVersion": "3.4.16",
  "updatedAt": "2025-02-20T06:41:11.000Z",
  "networkType": "ethereum",
  "devdoc": {
    "kind": "dev",
    "methods": {},
    "version": 1
  },
  "userdoc": {
    "kind": "user",
    "methods": {},
    "version": 1
  }
}