{
  "contractName": "Register",
  "abi": [
    {
      "anonymous": false,
      "inputs": [
        {
          "indexed": true,
          "internalType": "address",
          "name": "user",
          "type": "address"
        },
        {
          "indexed": false,
          "internalType": "string",
          "name": "username",
          "type": "string"
        },
        {
          "indexed": false,
          "internalType": "string",
          "name": "email",
          "type": "string"
        }
      ],
      "name": "UserRegistered",
      "type": "event"
    },
    {
      "inputs": [
        {
          "internalType": "address",
          "name": "",
          "type": "address"
        }
      ],
      "name": "users",
      "outputs": [
        {
          "internalType": "string",
          "name": "username",
          "type": "string"
        },
        {
          "internalType": "string",
          "name": "email",
          "type": "string"
        },
        {
          "internalType": "bytes32",
          "name": "passwordHash",
          "type": "bytes32"
        },
        {
          "internalType": "bool",
          "name": "isRegistered",
          "type": "bool"
        }
      ],
      "stateMutability": "view",
      "type": "function",
      "constant": true
    },
    {
      "inputs": [
        {
          "internalType": "string",
          "name": "_username",
          "type": "string"
        },
        {
          "internalType": "string",
          "name": "_email",
          "type": "string"
        },
        {
          "internalType": "string",
          "name": "_password",
          "type": "string"
        }
      ],
      "name": "registerUser",
      "outputs": [],
      "stateMutability": "nonpayable",
      "type": "function"
    },
    {
      "inputs": [
        {
          "internalType": "address",
          "name": "_user",
          "type": "address"
        }
      ],
      "name": "getUser",
      "outputs": [
        {
          "internalType": "string",
          "name": "",
          "type": "string"
        },
        {
          "internalType": "string",
          "name": "",
          "type": "string"
        },
        {
          "internalType": "bool",
          "name": "",
          "type": "bool"
        }
      ],
      "stateMutability": "view",
      "type": "function",
      "constant": true
    },
    {
      "inputs": [
        {
          "internalType": "string",
          "name": "_password",
          "type": "string"
        }
      ],
      "name": "verifyPassword",
      "outputs": [
        {
          "internalType": "bool",
          "name": "",
          "type": "bool"
        }
      ],
      "stateMutability": "view",
      "type": "function",
      "constant": true
    }
  ],
  "bytecode": "0x608060405234801561001057600080fd5b506112d5806100206000396000f3fe608060405234801561001057600080fd5b506004361061004c5760003560e01c806343589db8146100515780636f77926b14610081578063a87430ba146100b3578063d637dcfa146100e6575b600080fd5b61006b600480360381019061006691906109c4565b610102565b6040516100789190610a28565b60405180910390f35b61009b60048036038101906100969190610aa1565b610203565b6040516100aa93929190610b4d565b60405180910390f35b6100cd60048036038101906100c89190610aa1565b61048c565b6040516100dd9493929190610bab565b60405180910390f35b61010060048036038101906100fb9190610bfe565b6105d9565b005b60008060003373ffffffffffffffffffffffffffffffffffffffff1673ffffffffffffffffffffffffffffffffffffffff16815260200190815260200160002060030160009054906101000a900460ff16610192576040517f08c379a000000000000000000000000000000000000000000000000000000000815260040161018990610cf1565b60405180910390fd5b816040516020016101a39190610d4d565b604051602081830303815290604052805190602001206000803373ffffffffffffffffffffffffffffffffffffffff1673ffffffffffffffffffffffffffffffffffffffff16815260200190815260200160002060020154149050919050565b60608060008060008573ffffffffffffffffffffffffffffffffffffffff1673ffffffffffffffffffffffffffffffffffffffff16815260200190815260200160002060030160009054906101000a900460ff16610296576040517f08c379a000000000000000000000000000000000000000000000000000000000815260040161028d90610db0565b60405180910390fd5b6000808573ffffffffffffffffffffffffffffffffffffffff1673ffffffffffffffffffffffffffffffffffffffff1681526020019081526020016000206000016000808673ffffffffffffffffffffffffffffffffffffffff1673ffffffffffffffffffffffffffffffffffffffff1681526020019081526020016000206001016000808773ffffffffffffffffffffffffffffffffffffffff1673ffffffffffffffffffffffffffffffffffffffff16815260200190815260200160002060030160009054906101000a900460ff1682805461037390610dff565b80601f016020809104026020016040519081016040528092919081815260200182805461039f90610dff565b80156103ec5780601f106103c1576101008083540402835291602001916103ec565b820191906000526020600020905b8154815290600101906020018083116103cf57829003601f168201915b505050505092508180546103ff90610dff565b80601f016020809104026020016040519081016040528092919081815260200182805461042b90610dff565b80156104785780601f1061044d57610100808354040283529160200191610478565b820191906000526020600020905b81548152906001019060200180831161045b57829003601f168201915b505050505091509250925092509193909250565b60006020528060005260406000206000915090508060000180546104af90610dff565b80601f01602080910402602001604051908101604052809291908181526020018280546104db90610dff565b80156105285780601f106104fd57610100808354040283529160200191610528565b820191906000526020600020905b81548152906001019060200180831161050b57829003601f168201915b50505050509080600101805461053d90610dff565b80601f016020809104026020016040519081016040528092919081815260200182805461056990610dff565b80156105b65780601f1061058b576101008083540402835291602001916105b6565b820191906000526020600020905b81548152906001019060200180831161059957829003601f168201915b5050505050908060020154908060030160009054906101000a900460ff16905084565b6000803373ffffffffffffffffffffffffffffffffffffffff1673ffffffffffffffffffffffffffffffffffffffff16815260200190815260200160002060030160009054906101000a900460ff1615610668576040517f08c379a000000000000000000000000000000000000000000000000000000000815260040161065f90610e7c565b60405180910390fd5b60008351116106ac576040517f08c379a00000000000000000000000000000000000000000000000000000000081526004016106a390610ee8565b60405180910390fd5b60008251116106f0576040517f08c379a00000000000000000000000000000000000000000000000000000000081526004016106e790610f54565b60405180910390fd5b6000815111610734576040517f08c379a000000000000000000000000000000000000000000000000000000000815260040161072b90610fc0565b60405180910390fd5b60405180608001604052808481526020018381526020018260405160200161075c9190610d4d565b604051602081830303815290604052805190602001208152602001600115158152506000803373ffffffffffffffffffffffffffffffffffffffff1673ffffffffffffffffffffffffffffffffffffffff16815260200190815260200160002060008201518160000190816107d19190611196565b5060208201518160010190816107e79190611196565b506040820151816002015560608201518160030160006101000a81548160ff0219169083151502179055509050503373ffffffffffffffffffffffffffffffffffffffff167f92822564bab8864c3a47b34e8d23fbce5c46234eb5da261f94087b995ac0f33b848460405161085d929190611268565b60405180910390a2505050565b6000604051905090565b600080fd5b600080fd5b600080fd5b600080fd5b6000601f19601f8301169050919050565b7f4e487b7100000000000000000000000000000000000000000000000000000000600052604160045260246000fd5b6108d182610888565b810181811067ffffffffffffffff821117156108f0576108ef610899565b5b80604052505050565b600061090361086a565b905061090f82826108c8565b919050565b600067ffffffffffffffff82111561092f5761092e610899565b5b61093882610888565b9050602081019050919050565b82818337600083830152505050565b600061096761096284610914565b6108f9565b90508281526020810184848401111561098357610982610883565b5b61098e848285610945565b509392505050565b600082601f8301126109ab576109aa61087e565b5b81356109bb848260208601610954565b91505092915050565b6000602082840312156109da576109d9610874565b5b600082013567ffffffffffffffff8111156109f8576109f7610879565b5b610a0484828501610996565b91505092915050565b60008115159050919050565b610a2281610a0d565b82525050565b6000602082019050610a3d6000830184610a19565b92915050565b600073ffffffffffffffffffffffffffffffffffffffff82169050919050565b6000610a6e82610a43565b9050919050565b610a7e81610a63565b8114610a8957600080fd5b50565b600081359050610a9b81610a75565b92915050565b600060208284031215610ab757610ab6610874565b5b6000610ac584828501610a8c565b91505092915050565b600081519050919050565b600082825260208201905092915050565b60005b83811015610b08578082015181840152602081019050610aed565b60008484015250505050565b6000610b1f82610ace565b610b298185610ad9565b9350610b39818560208601610aea565b610b4281610888565b840191505092915050565b60006060820190508181036000830152610b678186610b14565b90508181036020830152610b7b8185610b14565b9050610b8a6040830184610a19565b949350505050565b6000819050919050565b610ba581610b92565b82525050565b60006080820190508181036000830152610bc58187610b14565b90508181036020830152610bd98186610b14565b9050610be86040830185610b9c565b610bf56060830184610a19565b95945050505050565b600080600060608486031215610c1757610c16610874565b5b600084013567ffffffffffffffff811115610c3557610c34610879565b5b610c4186828701610996565b935050602084013567ffffffffffffffff811115610c6257610c61610879565b5b610c6e86828701610996565b925050604084013567ffffffffffffffff811115610c8f57610c8e610879565b5b610c9b86828701610996565b9150509250925092565b7f55736572206e6f74207265676973746572656400000000000000000000000000600082015250565b6000610cdb601383610ad9565b9150610ce682610ca5565b602082019050919050565b60006020820190508181036000830152610d0a81610cce565b9050919050565b600081905092915050565b6000610d2782610ace565b610d318185610d11565b9350610d41818560208601610aea565b80840191505092915050565b6000610d598284610d1c565b915081905092915050565b7f55736572206e6f7420666f756e64000000000000000000000000000000000000600082015250565b6000610d9a600e83610ad9565b9150610da582610d64565b602082019050919050565b60006020820190508181036000830152610dc981610d8d565b9050919050565b7f4e487b7100000000000000000000000000000000000000000000000000000000600052602260045260246000fd5b60006002820490506001821680610e1757607f821691505b602082108103610e2a57610e29610dd0565b5b50919050565b7f5573657220616c72656164792072656769737465726564000000000000000000600082015250565b6000610e66601783610ad9565b9150610e7182610e30565b602082019050919050565b60006020820190508181036000830152610e9581610e59565b9050919050565b7f557365726e616d65206973207265717569726564000000000000000000000000600082015250565b6000610ed2601483610ad9565b9150610edd82610e9c565b602082019050919050565b60006020820190508181036000830152610f0181610ec5565b9050919050565b7f456d61696c206973207265717569726564000000000000000000000000000000600082015250565b6000610f3e601183610ad9565b9150610f4982610f08565b602082019050919050565b60006020820190508181036000830152610f6d81610f31565b9050919050565b7f50617373776f7264206973207265717569726564000000000000000000000000600082015250565b6000610faa601483610ad9565b9150610fb582610f74565b602082019050919050565b60006020820190508181036000830152610fd981610f9d565b9050919050565b60008190508160005260206000209050919050565b60006020601f8301049050919050565b600082821b905092915050565b6000600883026110427fffffffffffffffffffffffffffffffffffffffffffffffffffffffffffffffff82611005565b61104c8683611005565b95508019841693508086168417925050509392505050565b6000819050919050565b6000819050919050565b600061109361108e61108984611064565b61106e565b611064565b9050919050565b6000819050919050565b6110ad83611078565b6110c16110b98261109a565b848454611012565b825550505050565b600090565b6110d66110c9565b6110e18184846110a4565b505050565b5b81811015611105576110fa6000826110ce565b6001810190506110e7565b5050565b601f82111561114a5761111b81610fe0565b61112484610ff5565b81016020851015611133578190505b61114761113f85610ff5565b8301826110e6565b50505b505050565b600082821c905092915050565b600061116d6000198460080261114f565b1980831691505092915050565b6000611186838361115c565b9150826002028217905092915050565b61119f82610ace565b67ffffffffffffffff8111156111b8576111b7610899565b5b6111c28254610dff565b6111cd828285611109565b600060209050601f83116001811461120057600084156111ee578287015190505b6111f8858261117a565b865550611260565b601f19841661120e86610fe0565b60005b8281101561123657848901518255600182019150602085019450602081019050611211565b86831015611253578489015161124f601f89168261115c565b8355505b6001600288020188555050505b505050505050565b600060408201905081810360008301526112828185610b14565b905081810360208301526112968184610b14565b9050939250505056fea2646970667358221220dddd2bbb815fcc05cc6e828f6c1f86a1145618522d927c8d694fe36df9fb069264736f6c63430008130033",
  "immutableReferences": {},
  "source": "// SPDX-License-Identifier: MIT\npragma solidity ^0.8.0;\n\ncontract Register {\n    struct User {\n        string username;\n        string email;\n        bytes32 passwordHash;\n        bool isRegistered;\n    }\n\n    mapping(address => User) public users;\n\n    event UserRegistered(address indexed user, string username, string email);\n\n    modifier notRegistered() {\n        require(!users[msg.sender].isRegistered, \"User already registered\");\n        _;\n    }\n\n    function registerUser(string memory _username, string memory _email, string memory _password) public notRegistered {\n        require(bytes(_username).length > 0, \"Username is required\");\n        require(bytes(_email).length > 0, \"Email is required\");\n        require(bytes(_password).length > 0, \"Password is required\");\n\n        users[msg.sender] = User({\n            username: _username,\n            email: _email,\n            passwordHash: keccak256(abi.encodePacked(_password)),\n            isRegistered: true\n        });\n\n        emit UserRegistered(msg.sender, _username, _email);\n    }\n\n    function getUser(address _user) public view returns (string memory, string memory, bool) {\n        require(users[_user].isRegistered, \"User not found\");\n        return (users[_user].username, users[_user].email, users[_user].isRegistered);\n    }\n\n    function verifyPassword(string memory _password) public view returns (bool) {\n        require(users[msg.sender].isRegistered, \"User not registered\");\n        return users[msg.sender].passwordHash == keccak256(abi.encodePacked(_password));\n    }\n}\n",
  "sourcePath": "/home/arkapravadhar/Desktop/VoteChain/contracts/Register.sol",
  "compiler": {
    "name": "solc",
    "version": "0.8.19+commit.7dd6d404.Emscripten.clang"
  },
  "schemaVersion": "3.4.16",
  "updatedAt": "2025-02-22T09:23:10.559Z",
  "networkType": "ethereum",
  "devdoc": {
    "kind": "dev",
    "methods": {},
    "version": 1
  },
  "userdoc": {
    "kind": "user",
    "methods": {},
    "version": 1
  }
}